:02000004080AE8
:1000000000000A0894140A08000006000600050112
:080010000402E80500000000F5
:0400180038110A0889
:10001C0009480A4908B5884205D0094A824202D0EB
:10002C00121A01F03FF80748074A0021121A01F092
:10003C0044F8064808BD00BF0000002004140A085C
:10004C006800002068000020EC050020EC05002072
:10005C0070B500F013FB074B074C1E46E41AA408BE
:10006C000025A54204D056F8253098470135F8E70D
:10007C0070BD00BFC8130A08F8130A0800F011B8C5
:10008C0008B500F017F8BDE8084000F0B9BA00F068
:10009C00B5B90078B0FA80F04009704701230370BD
:1000AC00704708B500F0EAFBBDE808404FF4E131B9
:1000BC0000F0CABB38B5002000F00CFE044600F07E
:1000CC00DDFB002C054604DA2D2100F001FA61421B
:1000DC0000E021460A22284600F009FA284600F0E2
:1000EC00FAF9BDE83840642000F038BA00F000B8E6
:1000FC0008B5024B1B681B68019308BDB0010608CC
:10010C0008B5024B1B685B68019308BDB00106087B
:10011C0008B5024B1B681B6B019308BDB0010608A8
:10012C0008B5024B1B68DB69019308BDB4010608D6
:10013C0008B5024B1B681B6A019308BDB401060885
:10014C0008B5024B1B685B68019308BD9C0106084F
:10015C0008B5024B1B685B69019308BD9C0106083E
:10016C0008B5024B1B685B6C019308BDD0010608F7
:10017C0008B5024B1B689B6C019308BDD0010608A7
:10018C0008B5024B1B689B69019308BDC4010608A6
:10019C0008B5024B1B685B6A019308BDC4010608D5
:1001AC0008B5024B1B689B6A019308BDC401060885
:1001BC0008B5024B1B68DB6A019308BDC401060835
:1001CC0008B5024B1B681B6B019308BDC4010608E4
:1001DC0008B5024B1B685B6B019308BDC401060894
:1001EC0008B5024B1B689B6B019308BDC401060844
:1001FC0008B5024B1B681B6C019308BDC4010608B3
:10020C0008B5024B1B681B6E019308BDAC010608B8
:10021C0008B5024B1B685B6E019308BDAC01060868
:10022C0008B5024B1B689B6E019308BDAC01060818
:10023C0008B5024B1B68DB6E019308BDAC010608C8
:10024C0008B5024B1B681B6F019308BDAC01060877
:10025C0008B5024B1B685B6F019308BDAC01060827
:10026C0008B5034B1B68D3F88030019308BD000020
:10027C00AC01060808B5024B1B681B68019308BD4E
:10028C00D801060808B5024B1B685B68019308BDD2
:10029C00D801060808B5024B1B681B69019308BD01
:1002AC00D801060808B5024B1B685B69019308BDB1
:1002BC00D801060808B5024B1B689B69019308BD61
:1002CC00D801060808B5024B1B68DB69019308BD11
:1002DC00D801060808B5024B1B681B6A019308BDC0
:1002EC00D801060808B5024B1B689B6C019308BD2E
:1002FC00C001060808B5024B1B685B68019308BD7A
:10030C00A401060808B5024B1B685B69019308BD84
:10031C00A401060808B5034B1B68D3F89030019371
:10032C0008BD0000A401060808B5034B1B68D3F8F0
:10033C009C30019308BD0000A401060808B5024BCF
:10034C001B685B68019308BDC801060808B5024B21
:10035C001B689B68019308BDC801060808B5024BD1
:10036C001B68DB68019308BDC801060808B5024B81
:10037C001B681B69019308BDC801060808B5024B30
:10038C001B685B69019308BDC801060808B5024BE0
:10039C001B689B69019308BDC801060808B5024B90
:1003AC001B68DB69019308BDC801060808B5024B40
:1003BC001B681B6A019308BDC801060808B5024BEF
:1003CC001B681B6B019308BDC801060808B5024BDE
:1003DC001B685B6B019308BDC801060808B5024B8E
:1003EC001B68DB6B019308BDCC01060808B5024BFA
:1003FC001B681B68019308BDA001060808B5024BD9
:10040C001B685B68019308BDA001060870B5044623
:10041C000E46002540F8085FFFF7A2FE3046267016
:10042C00FFF77EFE6560204670BD0078FFF780BE4A
:10043C0010B50446006818B1FFF7E0FF00232360F5
:10044C0010BD10B50446FFF7F3FF204610BD0000A9
:10045C004FF6FF7310B5084C00202060A080A071EF
:10046C0020816381FFF746FF2046BDE81040034A18
:10047C00034900F09FBC00BF6C0000206800002006
:10048C004F040A08F8B506460D468F180024BD42E5
:10049C000CD0336815F8011B9B6830469847002830
:1004AC0001DB0444F3E7002C08BF04462046F8BDEA
:1004BC0070B505460C46084649B100F02FFE2B6876
:1004CC00024621462846BDE87040DB68184770BDDF
:1004DC0003689B68184738B50D210546FFF7F8FFF0
:1004EC000A2104462846FFF7F3FF204438BD012AB1
:1004FC0098BF0A2230B50B468BB000218DF8241022
:10050C000DF12304B3FBF2F505FB1233DBB2092B1F
:10051C0094BF30333733DBB2214604F801392B4614
:10052C00002DEFD1FFF7C4FF0BB030BD00231A46EE
:10053C0019464068FFF722BF014A024B1A60704708
:10054C00C2110A0878000020024B1A68024B1A608C
:10055C00704700BF000000207C0000200021FFF746
:10056C00D1BE10B58368044613B1032201469847E7
:10057C00204610BD10B50446FFF7F3FF204610BD12
:10058C00034800238360034A034900F013BC00BFF7
:10059C00800000206800002081050A0808B5144B73
:1005AC0033B100F06BF903681B699847002816DC1F
:1005BC00104B33B100F020FA03681B6998470028F0
:1005CC0010DC0D4B0BB1AFF300800C4B7BB100F08A
:1005DC0091F903681B699847002806DC08BDAFF346
:1005EC000080E5E7AFF30080EBE7AFF3008008BDD8
:1005FC0000000000000000000000000000000000EF
:10060C0008B5FFF7CBFFFFF7A3FD014B186008BD42
:10061C00140500200248034A0349121A00F042BD97
:10062C00004002400440024000140A0807B50023B1
:10063C0000931A466FF07701FFF776FE03B05DF872
:10064C0004FB000007B543880A2B08D0502B09D1B6
:10065C00094B1B683BB103B05DF804EB1847FFF77F
:10066C00E5FF06E0002300931A466FF07701FFF7D1
:10067C005BFE03B05DF804FB9000002038B5104C15
:10068C00104D2368AB42104B0CBF012200221A7094
:10069C0002D0FFF7BFFF2560FFF752FD044600F0C4
:1006AC0015FD0A4B13B12046AFF30080002107481B
:1006BC00FFF794FEBDE8384000210548FFF72ABE3D
:1006CC00004002401E1C279A9400002000000000ED
:1006DC0051060A08704710B50446182100F078FB43
:1006EC00204610BDF8B50F4600F10806051D002484
:1006FC0016F8011D0A223846FFF7F9FEAE420444F3
:10070C0007D0002CF4D02E213846FFF7E1FE04442C
:10071C00EEE72046F8BD000010B50446044B11224C
:10072C0040F8043B002100F0C8FC204610BD00BF7F
:10073C0064120A080346074A10B543F8042B01F16A
:10074C00100251F8044B914243F8044BF9D10A784A
:10075C001A7010BD64120A08024A41600260042239
:10076C000275704764120A0810B59DF8084044EAF7
:10077C00032343EA024242EA016104234160037508
:10078C0010BD000037B5044D05609DF8185000955C
:10079C00FFF7EAFF03B030BD64120A0841747047DA
:1007AC00704708B50021007CFFF784FD30EA20007B
:1007BC0028BF4FF0FF3008BD08B50121007CFFF7C2
:1007CC0079FD30EA200028BF4FF0FF3008BD08B596
:1007DC00007CFFF767FD20EAE07008BD08B5007CDF
:1007EC00FFF758FD20EAE07008BD007CFFF772BDF2
:1007FC0010B50446142100F0EBFA204610BD38B5B4
:10080C000446007C0D46FFF74DFD002801DC607CA2
:10081C0028B12946207CFFF755FD20EAE07038BD51
:10082C0010B50446002363604FF47A73A360054B44
:10083C00084623600123217463741146FFF71AFDE7
:10084C00204610BD78120A080022007CFFF71ABD62
:10085C0010B504461422002100F02FFC054B204655
:10086C006360054BE36040F20113238181232382F3
:10087C0010BD00BF1D0100209C00002030B50E4DA6
:10088C0087B001A8FFF7E4FF296811F0010410D12B
:10089C002846FFF7FEFB60B101AA21460748FFF787
:1008AC00BFFF2846FFF7FAFB054A0649034800F04C
:1008BC0081FA024807B030BD9800002020020020C9
:1008CC0068000020AD070A0810B504461422002168
:1008DC0000F0F3FB054B20466360054BE36040F2F0
:1008EC00011323818123238210BD00BFD00200207D
:1008FC003802002010B50E4C86B001A8FFF7E4FFBB
:10090C002368DB0710D42046FFF7C3FB60B101AAB4
:10091C0001210848FFF784FF2046FFF7BFFB064A7A
:10092C000649044800F046FA024806B010BD00BF64
:10093C0034020020BC02002068000020AD070A0829
:10094C0070474174704708B5007CFFF751FC20EAF2
:10095C00E07008BD08B5007CFFF722FC20EAE070CF
:10096C0008BD08B5007CFFF72BFC30EA200028BF3F
:10097C004FF0FF3008BD08B5007CFFF719FC30EADA
:10098C00200028BF4FF0FF3008BD007CFFF720BCD3
:10099C0010B50446142100F01BFA204610BD70B5AA
:1009AC00457C04460E4625B9007CFFF721FC002847
:1009BC0005DD3146207CBDE87040FFF7E9BB2846D9
:1009CC0070BD000010B50446084611460022626056
:1009DC004FF47A72A260054A20742260012262747C
:1009EC001A46FFF7CDFB204610BD00BFA8120A081F
:1009FC00007CFFF7F5BB000038B50C4D296811F0F1
:100A0C00010411D12846FFF744FB68B1084A21467E
:100A1C00084B0948FFF7D6FF2846FFF73FFB074A6C
:100A2C000749054800F0C6F9034838BD6C0400209E
:100A3C0070040020E8030020D4030020680000208C
:100A4C004D090A087047F8B5064615460C468F182E
:100A5C00BC4206D0336814F8011B9B68304698479B
:100A6C00F6E72846F8BD0022007CFFF7C9BB002141
:100A7C00007CFFF7CDBB0021007CFFF7D1BB002130
:100A8C00007CFFF7D5BB0021007CFFF7D9BB10B56C
:100A9C000446142100F09CF9204610BD10B5044604
:100AAC00002363604FF47A73A360044B21740846EF
:100ABC0023601146FFF7D4FB204610BDD8120A085C
:100ACC000021007CFFF7C4BB002211464068FFF7F1
:100ADC004DBCF0B5164689B011220F4604460021D4
:100AEC0003A800F0EAFA304600F018FB0025009548
:100AFC0081B27B6803AA3046FFF7F4FB20B129468C
:100B0C002046FFF729FE03E003A92046FFF712FE5B
:100B1C00204609B0F0BD002211464068FFF746BCE4
:100B2C00002211464068FFF751BC00224068FFF7D5
:100B3C0045BC002281F001014068FFF72FBC002367
:100B4C001A4619464068FFF721BC0022114640683E
:100B5C00FFF7FCBB002202214068FFF7FFBB00231C
:100B6C001A464068FFF7EABB024B04225A60024A5D
:100B7C001A607047F404002000130A0800231A4678
:100B8C004068FFF7DBBB002202214068FFF7E6BBA1
:100B9C00002211464068FFF7D9BB0022114640687D
:100BAC00FFF7E4BB00231A4619464068FFF7E6BB83
:100BBC0000231A4619464068FFF7E8BB002281F073
:100BCC0001014068FFF7EABB00224068FFF7F6BB63
:100BDC00002211464068FFF7F9BB0022114640681D
:100BEC00FFF7E4BB70B516468EB0044608A8FFF7B5
:100BFC0093FD1122002103A800F05FFA304600F0AB
:100C0C008DFA00250A4B009581B25B6803AA304629
:100C1C00FFF768FB20B129462046FFF79DFD03E056
:100C2C0003A92046FFF786FD20460EB070BD00BF1D
:100C3C00F4040020024B034A1A6000225A607047E9
:100C4C00FC04002034130A0810B50446806808B16F
:100C5C00FFF78EFA204610BD70B51A4E0446316867
:100C6C0011F001050FD13046FFF713FA58B12946A0
:100C7C001548FFF7CBFB3046FFF710FA134A14491F
:100C8C00114800F097F81048FFF7CFFB28B1A4F1FA
:100C9C000D03022B01D8002070BD00F065F8FFF7A2
:100CAC000FFF08B1012CF6D9FFF7A6FEFFF7A0FE47
:100CBC0018B1A4F11203012BEDD9172C8CBF002015
:100CCC00012070BD040500200805002068000020EC
:100CDC00550C0A0810B5044609289CBF0A34A4B266
:100CEC002046FFF7B9FF50B103212046FFF708FA61
:100CFC00032804D12046BDE81040FFF709BA0020B4
:100D0C0010BD000013B5084C00231A461946009379
:100D1C002046FFF737FD2046044A054902B0BDE8DE
:100D2C00104000F047B800BF1805002068000020F4
:100D3C00E1060A0870B5044614252A46094E00211E
:100D4C0000F0BBF9258020253146A5602561284699
:100D5C0000F040F831466060284600F03BF8E06057
:100D6C00204670BD60130A0830B50E4D87B0296857
:100D7C0011F0010413D12846FFF78BF978B101A8C3
:100D8C00FFF7D8FF01AA21460748FFF787FE284640
:100D9C00FFF784F9054A0649034800F00BF80248AE
:100DAC0007B030BD3005002034050020680000205D
:100DBC00510A0A080B460146184600F065B90000B6
:100DCC00024B1868BFF35F8F704700BF48050020C7
:100DDC00FFF75DB900F000B810B5002814BF044649
:100DEC0001242046FFF702FB20B9FFF7E9FF08B109
:100DFC008047F6E710BD0000184B1A68D1075CBF9E
:100E0C0001221A60164B1A68D2075CBF01221A60C5
:100E1C00144B1A68D0075CBF01221A60124B1A6877
:100E2C00D1075CBF01221A60104B1A68D2075CBF55
:100E3C0001221A600E4B1A68D0075CBF01221A609F
:100E4C000C4B1A68D1075CBF01221A600A4B1A6856
:100E5C00D2075CBF01221A60704700BF68050020F2
:100E6C0064050020600500205C050020580500206A
:100E7C0054050020500500204C050020244B1A6816
:100E8C00D0075CBF01221A60224B1A68D1075CBFE5
:100E9C0001221A60204B1A68D2075CBF01221A602B
:100EAC001E4B1A68D0075CBF01221A601C4B1A68D3
:100EBC00D1075CBF01221A601A4B1A68D2075CBFBB
:100ECC0001221A60184B1A68D0075CBF01221A6005
:100EDC00164B1A68D1075CBF01221A60144B1A68B2
:100EEC00D2075CBF01221A60124B1A68D0075CBF94
:100EFC0001221A60104B1A68D1075CBF01221A60DC
:100F0C000E4B1A68D2075CBF01221A60704700BFF3
:100F1C009805002094050020900500208C050020E9
:100F2C008805002084050020800500207C05002019
:100F3C007805002074050020700500206C05002049
:100F4C00244B1A68D0075CBF01221A60224B1A6826
:100F5C00D1075CBF01221A60204B1A68D2075CBF14
:100F6C0001221A601E4B1A68D0075CBF01221A605E
:100F7C001C4B1A68D1075CBF01221A601A4B1A6805
:100F8C00D2075CBF01221A60184B1A68D0075CBFED
:100F9C0001221A60164B1A68D1075CBF01221A6035
:100FAC00144B1A68D2075CBF01221A60124B1A68E4
:100FBC00D0075CBF01221A60104B1A68D1075CBFC6
:100FCC0001221A600E4B1A68D2075CBF01221A600C
:100FDC00704700BFC8050020C4050020C0050020D4
:100FEC00BC050020B8050020B4050020B005002089
:100FFC00AC050020A8050020A4050020A0050020B9
:10100C009C050020184B1A68D1075CBF01221A609E
:10101C00164B1A68D2075CBF01221A60144B1A686F
:10102C00D0075CBF01221A60124B1A68D1075CBF53
:10103C0001221A60104B1A68D2075CBF01221A6099
:10104C000E4B1A68D0075CBF01221A600C4B1A6851
:10105C00D1075CBF01221A600A4B1A68D2075CBF29
:10106C0001221A60704700BFE8050020E40500204B
:10107C00E0050020DC050020D8050020D405002068
:10108C00D0050020CC05002010B5054C13462CB122
:10109C000A4601460220AFF3008010BD204610BD69
:1010AC000000000010B5431E0A44914204D011F810
:1010BC00014B03F8014FF8E710BD0346024493427D
:1010CC0002D003F8011BFAE77047000038B5124B49
:1010DC0005461C68A36BD3B91820FFF787F943F2B8
:1010EC000E33A06303804AF6CD33438041F23423A0
:1010FC0083804EF26D63C3804DF6EC630381052350
:10110C0043810B23838101220023C0E90423A36BB9
:10111C0000221D615A6138BD64000020034613F89B
:10112C00012B002AFBD1181A013870471D000A0840
:10113C005D000A0889000A088D000A0800000000FA
:10114C00626175640053657269616C00555342535A
:10115C00657269616C3100747970650070617261DF
:10116C006D00636D6400696400686E640073747272
:10117C006D0066696C74006C766C00616464486127
:10118C006E646C65720072656D6F766548616E6435
:10119C006C657200656E756D48616E646C6572731A
:1011AC00004A534F4E53747265616D4C6F674861C2
:1011BC006E646C6572006170700025303130752082
:1011CC00005D20002564002C200028293A200020F6
:1011DC005B00636F6465203D2000256900646574C5
:1011EC0061696C73203D20000D0A0066006C6E0076
:1011FC00666E00636F64650064657461696C006E93
:10120C006F6E6500747261636500696E666F00775E
:10121C0061726E006572726F720070616E6963004C
:10122C00616C6C005A00252B3033643A25303275D2
:10123C000025592D256D2D25645425483A254D3A08
:10124C002553257A0061736374696D650000000095
:10125C000000000000000000F1060A08E1060A0880
:10126C00E3060A080000000000000000AD070A08B1
:10127C00FD070A080B080A0891040A08E9070A087E
:10128C00AF070A08C5070A08F7070A08DB070A08A8
:10129C00A9070A0800000000000000004D090A0818
:1012AC009D090A08AB090A0891040A0861090A0891
:1012BC0083090A086F090A0897090A084F090A08DE
:1012CC0053090A080000000000000000510A0A0837
:1012DC009B0A0A08730A0A08530A0A087B0A0A08B6
:1012EC00830A0A088B0A0A08930A0A0800000000FD
:1012FC00000000006B0B0A08610B0A08570B0A0868
:10130C00D50A0A0839050A084B0B0A083F0B0A08CC
:10131C00370B0A082D0B0A08230B0A08DF0A0A08E8
:10132C000000000000000000890B0A08930B0A085B
:10133C009D0B0A08A70B0A08B10B0A08BD0B0A087B
:10134C00C90B0A08D50B0A08DD0B0A08E70B0A08BB
:10135C00F10B0A0800000000000000000000000073
:10136C000000000000000000000000000000000071
:10137C000000000000000000000000000000000061
:10138C000000000000000000000000000000000051
:10139C000000000000000000000000000000000041
:1013AC000000000000000000000000000000000031
:1013BC00000000000000000043000000F9000A08D3
:1013CC005D040A0845050A0855050A088D050A0832
:1013DC00750B0A08410C0A08110D0A08050E0A08BB
:1013EC00890E0A084D0F0A0811100A0800000000A7
:0413FC0000000000ED
:0414000000000000E8
:1014040051120A080000000064130A0884130A0831
:10141400A4130A08000000000000000000000000FF
:1014240000000000C4130A080000000000000000CF
:1014340000000000000000000000000000000000A8
:101444000000000000000000000000000000000098
:101454000000000000000000000000000000000088
:0814640000000000040000205C
:10146C00FFFFFFFF00000102030405060708090A3D
:10147C000B0C0D0E0F101112131415161718191A38
:08148C001B1C1D1E1F2028007F
:041494007856341240
:04000005080A001CC9
:00000001FF
