:02000002D0002C
:1040000000400D002C620D00000006000C000501B0
:084010000401E80500000000B6
:044018004C5E0D00ED
:10401C0009480A49884208B505D0094A824202D0AB
:10402C00121A01F0C9FE0748074A0021121A01F0C2
:10403C00CEFE014808BD00BF58E4032094610D007A
:10404C00C8E40320C8E40320F0E7032070B500F0B7
:10405C0059FC074C074BE41AA40800251E46A54240
:10406C0004D056F8253098470135F8E770BD00BFED
:10407C0084610D004C610D0000F015B808B500F01E
:10408C001BF8BDE8084000F0FFBB00F0DFB900F002
:10409C00E5B900F0E3B90078B0FA80F04009704758
:1040AC0001230370704708B500F02CFD4FF4E1318B
:1040BC00BDE8084000F01ABD10B50E4B0E4C188828
:1040CC0000F0FAFF0D4B07EE900A93ED007AF8EE34
:1040DC00E77A67EE877AC4ED007A00F013FD94ED71
:1040EC00000A022100F071FB6420BDE8104000F0D2
:1040FC008DBB00BF58E40320CCE403205CE4032018
:10410C0000F010B808B5024B1B689B68019308BD02
:10411C006802030008B5024B1B68DB68019308BDFD
:10412C006802030008B5024B1B681B68019308BDAD
:10413C002C02030008B5024B1B685B68019308BD99
:10414C002C02030008B5024B1B681B6B019308BDC6
:10415C002C02030008B5024B1B68DB69019308BDF8
:10416C003002030008B5024B1B681B6A019308BDA3
:10417C003002030008B5024B1B685B68019308BD55
:10418C001802030008B5024B1B685B69019308BD5C
:10419C001802030008B5024B1B689B68019308BD0D
:1041AC004802030008B5024B1B681B69019308BD4C
:1041BC004802030008B5024B1B685B69019308BDFC
:1041CC004802030008B5024B1B685B6C019308BDE9
:1041DC004802030008B5024B1B689B6C019308BD99
:1041EC004802030008B5024B1B685B69019308BDCC
:1041FC006402030008B5024B1B681B68019308BDE1
:10420C003C02030008B5024B1B68DB68019308BD38
:10421C003C02030008B5024B1B681B69019308BDE7
:10422C003C02030008B5024B1B685B69019308BD97
:10423C003C02030008B5024B1B689B69019308BD47
:10424C003C02030008B5024B1B68DB69019308BDF7
:10425C003C02030008B5024B1B681B6A019308BDA6
:10426C003C02030008B5024B1B689B6A019308BD16
:10427C003C02030008B5024B1B681B6A019308BD86
:10428C002802030008B5024B1B685B6A019308BD4A
:10429C002802030008B5024B1B689B6A019308BDFA
:1042AC002802030008B5024B1B68DB6A019308BDAA
:1042BC002802030008B5024B1B681B6B019308BD59
:1042CC002802030008B5024B1B685B6B019308BD09
:1042DC002802030008B5024B1B681B6C019308BD38
:1042EC002802030008B5024B1B681B68019308BD2C
:1042FC004C02030008B5024B1B685B68019308BDB8
:10430C004C02030008B5024B1B681B69019308BDE6
:10431C004C02030008B5024B1B685B69019308BD96
:10432C004C02030008B5024B1B689B69019308BD46
:10433C004C02030008B5024B1B68DB69019308BDF6
:10434C004C02030008B5024B1B681B6A019308BDA5
:10435C004C02030008B5024B1B685B68019308BD57
:10436C002002030008B5024B1B685B69019308BD72
:10437C002002030008B5034B1B68D3F88830019367
:10438C0008BD00002002030008B5034B1B68D3F8DE
:10439C009430019308BD00002002030008B5024BC5
:1043AC001B685B68019308BD4002030008B5024B13
:1043BC001B689B68019308BD4002030008B5024BC3
:1043CC001B68DB68019308BD4002030008B5024B73
:1043DC001B681B69019308BD4002030008B5024B22
:1043EC001B685B69019308BD4002030008B5024BD2
:1043FC001B689B69019308BD4002030008B5024B82
:10440C001B68DB69019308BD4002030008B5024B31
:10441C001B681B6A019308BD4002030008B5024BE0
:10442C001B681B6B019308BD4002030008B5024BCF
:10443C001B685B6B019308BD4002030008B5024B7F
:10444C001B68DB6B019308BD4402030008B5024BEB
:10445C001B681B68019308BD1C02030008B5024BC6
:10446C001B685B68019308BD1C0203000022114607
:10447C004068FFF7CBBF002211464068FFF7D6BF5C
:10448C0000224068FFF7CABF002281F0010140689A
:10449C00FFF7B4BF00231A4619464068FFF7A6BFC2
:1044AC0000231A4619464068FFF798BF00221146B0
:1044BC004068FFF78BBF002211464068FFF776BFBC
:1044CC00002202214068FFF779BF00231A4640689A
:1044DC00FFF764BF024B03225A60024A1A6070470E
:1044EC00D0E40320685E0D0010B504460170084648
:1044FC00FFF730FE00236360204610BD0078FFF705
:10450C0031BE10B50446006818B1FFF7A7FF0023B1
:10451C00236010BD10B50446FFF7F3FF204610BD15
:10452C0010B5094C00204FF6FF732060A080A071DD
:10453C0020816381FFF70EFF2046044A0449BDE841
:10454C00104000F011BE00BFD8E40320C8E40320E3
:10455C0021450D0010B50446006808B1FFF73AFE7E
:10456C00204610BD10B5064C002320462360FFF7F3
:10457C0029FE2046034A0449BDE8104000F0F4BD72
:10458C00E4E40320C8E4032061450D00F8B50646B9
:10459C000D468F180024BD420CD0336815F8011B52
:1045AC009B6830469847002801DB0444F3E7002C55
:1045BC0008BF04462046F8BD70B505460C460846B3
:1045CC0049B101F035FC2B68024621462846DB68D0
:1045DC00BDE87040184770BD03689B68184738B534
:1045EC000D210546FFF7F8FF0A2104462846FFF780
:1045FC00F3FF204438BD30B58BB00B4600218DF84D
:10460C002410012A98BF0A220DF12304B3FBF2F502
:10461C0005FB123303F0FF03092B94BF3033373300
:10462C00DBB2214604F801392B46002DEED1FFF701
:10463C00C3FF0BB030BD00002DE9F04757EC106BF9
:10464C0082460D4610EE102A3B4610EE100A3946F3
:10465C0001F046FB08B14E4912E027F000494FF03B
:10466C00FF324C4B3046494601F03AFB68B94FF0EB
:10467C00FF32484B3046494601F014FB28B94649F5
:10468C005046FFF799FFBDE8F0874FF06042434B6F
:10469C003046394601F01AFB08B14149F0E74FF0BA
:1046AC006042404B3046394601F0F2FA0028F4D112
:1046BC00002200233046394601F0EAFA40B12D21A0
:1046CC005046FFF789FF07F1004304461F4600E000
:1046DC00044635494FF0000800205FFA88F39D42EC
:1046EC0006D90022314B01F08BF908F10108F4E7EF
:1046FC0032463B4600F0A8FE0F46064601F02EFB64
:10470C000A22014680465046FFF775FF0444E5B384
:10471C00404600F0D5FF02460B463046394600F0C5
:10472C0091FE06460F4650462149FFF745FF0444CB
:10473C0000221E4B3046394601F038F806460F462B
:10474C0001F0E4FAB0F1000907DA2D215046FFF729
:10475C0043FFC9F10001804602E049464FF00008D2
:10476C000A225046FFF747FF40440444484600F0F5
:10477C00B7FF02460B463046394600F063FE013D5A
:10478C0015F0FF0506460F46D2D12046BDE8F0874E
:10479C00945E0D00FFFFEF7F9E5E0D00FFFFEF416B
:1047AC00985E0D00FFFFEFC10000E03F00002440C9
:1047BC009C5E0D0038B5C9B20546FFF73DFF0446B7
:1047CC002846FFF70CFF204438BD38B5044610EEE0
:1047DC00100A0D4600F096FF41EC100B29462046BE
:1047EC00BDE83840FFF7E6BF014B024A1A6070473C
:1047FC00E8E40320155F0D00024B1A68024B1A60A7
:10480C00704700BF60E40320ECE403200021FFF7B5
:10481C00A9BD10B58368044613B10322014698471D
:10482C00204610BD10B50446FFF7F3FF204610BD1F
:10483C000348044A04490023836000F095BC00BF80
:10484C00F0E40320C8E4032031480D0008B50C4BFC
:10485C0033B100F057F903681B699847002809DC4D
:10486C00084B63B100F0D0F903681B699847002826
:10487C0003DC08BDAFF30080F2E7AFF3008008BDA6
:10488C00000000000000000008B5FFF7DFFFFFF795
:10489C0079FC014B186008BD30E703200248034A3D
:1048AC000349121A01F088BA00F4032004F403201F
:1048BC0090610D0007B5002300931A466FF0770145
:1048CC00FFF762FD03B05DF804FB000007B54388F9
:1048DC000A2B08D0502B09D1094B1B683BB103B0F4
:1048EC005DF804EB1847FFF7E5FF06E000230093A3
:1048FC001A466FF07701FFF747FD03B05DF804FB34
:10490C0000E5032038B5104C104D2368AB42104B1A
:10491C000CBF012200221A7002D0FFF7BFFF2560E6
:10492C00FFF728FC044601F05BFA0A4B13B1204652
:10493C00AFF3008000210748FFF780FD00210648F7
:10494C00BDE83840FFF716BD00F403201E1C279A63
:10495C0004E5032000000000D9480D00704710B595
:10496C001821044600F00EFC204610BDF0B5037D66
:10497C00062B8DB00E4600F104074FF0000402D058
:10498C0000F1080518E00CAD394605F8304D2F2321
:10499C002A460A20FFF726FC284601F049FA33681C
:1049AC000246DB682946304698470FE024B12E2199
:1049BC003046FFF711FE044415F8011D0A2230465B
:1049CC00FFF719FEBD420444F0D120460DB0F0BDF6
:1049DC0010B5054B0446112240F8043B002101F0B0
:1049EC00F6F9204610BD00BFB45F0D000346074A20
:1049FC0010B543F8042B01F1100251F8044B43F8A5
:104A0C00044B9142F9D10A781A7010BDB45F0D00B5
:104A1C0010B59DF8084044EA032343EA024242EAF7
:104A2C00016104234160037510BD37B50D788B7897
:104A3C004A78C97800912946FFF7EAFF03B030BDE8
:104A4C0041747047704708B50021007CFFF76AFC81
:104A5C0030EA200028BF4FF0FF3008BD08B5012117
:104A6C00007CFFF75FFC30EA200028BF4FF0FF30DE
:104A7C0008BD08B5007CFFF74DFC20EAE07008BDCE
:104A8C0008B5007CFFF73EFC20EAE07008BD007C16
:104A9C00FFF758BC10B51421044600F073FB2046F8
:104AAC0010BD38B50446007C0D46FFF733FC0028DA
:104ABC0001DC607C28B12946207CFFF73BFC20EA16
:104ACC00E07038BD10B50446002363604FF47A7370
:104ADC00A360054B236001230846217463741146BF
:104AEC00FFF700FC204610BDC85F0D000022007CC3
:104AFC00FFF700BC10B514220446002101F067F941
:104B0C00204610BD30B50E4D87B001A8FFF7F2FF5F
:104B1C00296811F0010410D12846FFF7BCFA60B1E6
:104B2C0001AA21460748FFF7CDFF2846FFF7B8FA40
:104B3C00054A0649034800F017FB024807B030BD90
:104B4C0008E503200CE50320C8E40320514A0D00BE
:104B5C0070474174704708B5007CFFF783FB20EA6F
:104B6C00E07008BD08B5007CFFF754FB20EAE0704C
:104B7C0008BD08B5007CFFF75DFB30EA200028BFBC
:104B8C004FF0FF3008BD08B5007CFFF74BFB30EA57
:104B9C00200028BF4FF0FF3008BD007CFFF752BB50
:104BAC0010B51421044600F0EDFA204610BD70B586
:104BBC00457C04460E4625B9007CFFF753FB0028C4
:104BCC0005DD3146207CBDE87040FFF71BBB284655
:104BDC0070BD000010B50446084611460022626004
:104BEC004FF47A72A260054A22600122207462742A
:104BFC001A46FFF7FFFA204610BD00BFF85F0D0004
:104C0C00007CFFF727BB0000F8B5194C25684DB99F
:104C1C008420FFF73AFA064618B18422294601F09F
:104C2C00D6F82660134D2E684EB98420FFF72DFA66
:104C3C00074618B18422314601F0C9F82F600E4F97
:104C4C00396811F0010611D13846FFF724FA68B122
:104C5C0022682B6809483146FFF7BCFF3846FFF73E
:104C6C001FFA074A0749054800F07EFA0348F8BDC9
:104C7C003CE5032034E5032038E5032020E5032040
:104C8C00C8E403205D4B0D007047F8B50646154689
:104C9C000C468F18BC4206D0336814F8011B9B6875
:104CAC0030469847F6E72846F8BD0022007CFFF70F
:104CBC00E1BA0021007CFFF7E5BA0021007CFFF788
:104CCC00E9BA0021007CFFF7EDBA0021007CFFF768
:104CDC00F1BA10B51421044600F054FA204610BD68
:104CEC0010B50446002363604FF47A73A360044B41
:104CFC002174084623601146FFF7ECFA204610BDDC
:104D0C0028600D000021007CFFF7DCBA0022114660
:104D1C004068FFF77BBB002211464068FFF786BB5B
:104D2C0000224068FFF77ABB002281F00101406845
:104D3C00FFF764BB00231A4601214068FFF756BBFE
:104D4C0000231A4619464068FFF748BB002211465B
:104D5C004068FFF73BBB002211464068FFF726BBBB
:104D6C00002202214068FFF729BB00231A46406845
:104D7C00FFF714BB38B5054688B104684CB1A3687D
:104D8C001BB103222146204698471021204600F0F3
:104D9C00F9F928461421BDE8384000F0F3B938BDC4
:104DAC0010B103685B681847704710B50368044678
:104DBC00BBB15868FFF7EEF978B923685A7C12B981
:104DCC005868FFF7EFF923685868FFF7F3F9206884
:104DDC000023236028B1FFF7CDFF206808B1FFF74F
:104DEC00C9FF204610BD38B50446D0F8C40108B13F
:104DFC00FFF74FF9D4F8C00108B1FFF7EBF9D4F87D
:104E0C00BC5135B12846FFF7D0FF0421284600F0ED
:104E1C00B9F9206808B1FFF7C3FF204638BD000080
:104E2C0010B5044B044640F8083BFFF7DCFF204666
:104E3C0010BD00BF50600D0038B50E4C0E4B2360FA
:104E4C000025022304F5E4706360A560C4F8C45126
:104E5C00C4F8C851FFF7B6F9084BC4F8CC5184F824
:104E6C00D05123602046064A0649BDE8384000F080
:104E7C007BB900BF40E50320B8600D0050600D0009
:104E8C00C8E403202D4E0D00002211464068FFF7A8
:104E9C009DBA002211464068FFF7B8BA00221146AD
:104EAC004068FFF7C3BA00224068FFF7B7BA002288
:104EBC0081F001014068FFF7A1BA00231A46194698
:104ECC004068FFF793BA00231A4619464068FFF76B
:104EDC0085BA002211464068FFF768BA0022022109
:104EEC004068FFF76BBA00231A464068FFF756BAC2
:104EFC00024B04225A60024A1A60704714E70320DE
:104F0C0084600D0000231A464068FFF747BA002260
:104F1C0002214068FFF752BA002211464068FFF7A1
:104F2C0045BA002211464068FFF750BA00231A46D2
:104F3C0019464068FFF752BA00231A4619464068D2
:104F4C00FFF754BA002281F001014068FFF756BA0E
:104F5C0000224068FFF762BA002211464068FFF752
:104F6C0065BA002211464068FFF750BA2DE9F043AC
:104F7C00002495B016460D460746FFF729FD21463D
:104F8C0020220CA8009400F022FF40230C93214611
:104F9C006B460CAA3046FFF7BDF80446002844D1F6
:104FAC00024601216868FFF711FA02218046224669
:104FBC006868FFF70BFA009E81462146002E34D01C
:104FCC00002932D17368022B02D00A2B09D02AE0B7
:104FDC00B8F1000F27D0716938460431FFF725FD71
:104FEC0020E0B9F1000F1ED07469112201A800F065
:104FFC00EEFE06238DF8143001AD04F108031834CD
:10500C00186859682A4603C20833A3421546F7D1DB
:10501C0001A906A807ADFFF7E9FC0FCD3C1D0FC495
:10502C002B6823700121F669C8E70098FFF76AF82E
:10503C00384615B0BDE8F083024B034A1A600022D3
:10504C005A6070471CE70320B8600D0070B5184E0D
:10505C00316811F0010504460AD13046FFF71BF800
:10506C0030B129461348FFF73FFA3046FFF718F8DE
:10507C001048FFF743FA28B1A4F10B03022B01D817
:10508C00002070BD00F04AF8FFF73CFE08B1012C7F
:10509C00F6D9FFF7B9FDFFF7B3FD18B1A4F1090379
:1050AC00012BEDD9232C8CBF0020012070BD00BF3B
:1050BC0024E7032028E703200D2810B504469CBFE5
:1050CC000E34A4B22046FFF7C1FF50B10321204695
:1050DC00FFF730F8032804D12046BDE81040FFF755
:1050EC0031B8002010BD000070B5044614252A46C6
:1050FC00094E002100F06BFE258020253146A5606D
:10510C002561284600F040F831466060284600F0E2
:10511C003BF8E060204670BDE4600D0030B50E4DEC
:10512C00296811F0010487B013D12846FEF7B3FFAC
:10513C0078B101A8FFF7D8FF01AA21460748FFF76D
:10514C00CFFD2846FEF7ACFF054A0649034800F0A0
:10515C000BF8024807B030BD34E7032038E70320D2
:10516C00C8E40320954C0D000B460146184600F090
:10517C0015BE0000024B1868BFF35F8F704700BF6D
:10518C004CE70320FEF783BF00F000B810B50028F1
:10519C0014BF044601242046FFF758F920B9FFF745
:1051AC00E9FF08B18047F6E710BD0000184B1A68FC
:1051BC00D1075CBF01221A60164B1A68D2075CBF7C
:1051CC0001221A60144B1A68D0075CBF01221A60C6
:1051DC00124B1A68D1075CBF01221A60104B1A6877
:1051EC00D2075CBF01221A600E4B1A68D0075CBF55
:1051FC0001221A600C4B1A68D1075CBF01221A609D
:10520C000A4B1A68D2075CBF01221A60704700BFB4
:10521C006CE7032068E7032064E7032060E70320C2
:10522C005CE7032058E7032054E7032050E70320F2
:10523C00244B1A68D0075CBF01221A60224B1A68F3
:10524C00D1075CBF01221A60204B1A68D2075CBFE1
:10525C0001221A601E4B1A68D0075CBF01221A602B
:10526C001C4B1A68D1075CBF01221A601A4B1A68D2
:10527C00D2075CBF01221A60184B1A68D0075CBFBA
:10528C0001221A60164B1A68D1075CBF01221A6002
:10529C00144B1A68D2075CBF01221A60124B1A68B1
:1052AC00D0075CBF01221A60104B1A68D1075CBF93
:1052BC0001221A600E4B1A68D2075CBF01221A60D9
:1052CC00704700BF9CE7032098E7032094E7032076
:1052DC0090E703208CE7032088E7032084E7032072
:1052EC0080E703207CE7032078E7032074E70320A2
:1052FC0070E70320244B1A68D0075CBF01221A60A8
:10530C00224B1A68D1075CBF01221A60204B1A6825
:10531C00D2075CBF01221A601E4B1A68D0075CBF13
:10532C0001221A601C4B1A68D1075CBF01221A605B
:10533C001A4B1A68D2075CBF01221A60184B1A6804
:10534C00D0075CBF01221A60164B1A68D1075CBFEC
:10535C0001221A60144B1A68D2075CBF01221A6032
:10536C00124B1A68D0075CBF01221A60104B1A68E6
:10537C00D1075CBF01221A600E4B1A68D2075CBFC2
:10538C0001221A60704700BFCCE70320C8E7032056
:10539C00C4E70320C0E70320BCE70320B8E70320E1
:1053AC00B4E70320B0E70320ACE70320A8E7032011
:1053BC00A4E70320A0E70320184B1A68D1075CBFB1
:1053CC0001221A60164B1A68D2075CBF01221A60C0
:1053DC00144B1A68D0075CBF01221A60124B1A6872
:1053EC00D1075CBF01221A60104B1A68D2075CBF50
:1053FC0001221A600E4B1A68D0075CBF01221A609A
:10540C000C4B1A68D1075CBF01221A600A4B1A6850
:10541C00D2075CBF01221A60704700BFECE7032083
:10542C00E8E70320E4E70320E0E70320DCE70320C0
:10543C00D8E70320D4E70320D0E7032081F0004114
:10544C0002E000BF83F0004330B54FEA41044FEA5D
:10545C00430594EA050F08BF90EA020F1FBF54EAF8
:10546C00000C55EA020C7FEA645C7FEA655C00F094
:10547C00E2804FEA5454D4EB5555B8BF6D420CDD65
:10548C002C4480EA020281EA030382EA000083EAE8
:10549C00010180EA020281EA0303362D88BF30BD88
:1054AC0011F0004F4FEA01314FF4801C4CEA1131DE
:1054BC0002D0404261EB410113F0004F4FEA03333D
:1054CC004CEA133302D0524263EB430394EA050FC8
:1054DC0000F0A780A4F10104D5F1200E0DDB02FA37
:1054EC000EFC22FA05F2801841F1000103FA0EF2CB
:1054FC00801843FA05F359410EE0A5F120050EF191
:10550C00200E012A03FA0EFC28BF4CF0020C43FAC1
:10551C0005F3C01851EBE37101F0004507D54FF0CE
:10552C00000EDCF1000C7EEB00006EEB0101B1F51E
:10553C00801F1BD3B1F5001F0CD349085FEA300064
:10554C004FEA3C0C04F101044FEA445212F5800F6F
:10555C0080F09A80BCF1004F08BF5FEA500C50F10C
:10556C00000041EB045141EA050130BD5FEA4C0CEF
:10557C00404141EB010111F4801FA4F10104E9D178
:10558C0091F0000F04BF01460020B1FA81F308BF6F
:10559C002033A3F10B03B3F120020CDA0C3208DD3B
:1055AC0002F1140CC2F10C0201FA0CF021FA02F116
:1055BC000CE002F11402D8BFC2F1200C01FA02F186
:1055CC0020FA0CFCDCBF41EA0C019040E41AA2BFAB
:1055DC0001EB0451294330BD6FEA04041F3C1CDA73
:1055EC000C340EDC04F11404C4F1200220FA04F093
:1055FC0001FA02F340EA030021FA04F345EA03013D
:10560C0030BDC4F10C04C4F1200220FA02F001FAFE
:10561C0004F340EA0300294630BD21FA04F0294680
:10562C0030BD94F0000F83F4801306BF81F4801119
:10563C000134013D4EE77FEA645C18BF7FEA655C8C
:10564C0029D094EA050F08BF90EA020F05D054EA5E
:10565C00000C04BF1946104630BD91EA030F1EBF63
:10566C000021002030BD5FEA545C05D14000494167
:10567C0028BF41F0004130BD14F580043CBF01F55A
:10568C00801130BD01F0004545F0FE4141F4700140
:10569C004FF0000030BD7FEA645C1ABF194610461B
:1056AC007FEA655C1CBF0B46024650EA013406BF1C
:1056BC0052EA033591EA030F41F4002130BD00BFDB
:1056CC0090F0000F04BF0021704730B54FF4806498
:1056DC0004F132044FF000054FF0000150E700BF19
:1056EC0090F0000F04BF0021704730B54FF4806478
:1056FC0004F1320410F0004548BF40424FF0000165
:10570C003EE700BF42004FEAE2014FEA31014FEAA7
:10571C0002701FBF12F07F4393F07F4F81F06051F6
:10572C00704792F0000F14BF93F07F4F704730B565
:10573C004FF4607401F0004521F0004120E700BFF8
:10574C0050EA010208BF704730B54FF000050AE07F
:10575C0050EA010208BF704730B511F0004502D580
:10576C00404261EB41014FF4806404F132045FEA82
:10577C00915C3FF4DCAE4FF003025FEADC0C18BF27
:10578C0003325FEADC0C18BF033202EBDC02C2F11D
:10579C00200300FA03FC20FA02F001FA03FE40EAAF
:1057AC000E0021FA02F11444C1E600BF70B54FF0AF
:1057BC00FF0C4CF4E06C1CEA11541DBF1CEA135591
:1057CC0094EA0C0F95EA0C0F00F0DEF82C4481EAF9
:1057DC00030621EA4C5123EA4C5350EA013518BF19
:1057EC0052EA033541F4801143F4801338D0A0FB06
:1057FC0002CE4FF00005E1FB02E506F00042E0FBB3
:10580C0003E54FF00006E1FB03569CF0000F18BFB8
:10581C004EF0010EA4F1FF04B6F5007F64F5407460
:10582C0004D25FEA4E0E6D4146EB060642EAC621F3
:10583C0041EA55514FEAC52040EA5E504FEACE2E60
:10584C00B4F1FD0C88BFBCF5E06F1ED8BEF1004F63
:10585C0008BF5FEA500E50F1000041EB045170BDDF
:10586C0006F0004646EA010140EA020081EA030123
:10587C00B4EB5C04C2BFD4EB0C0541EA045170BD1F
:10588C0041F480114FF0000E013C00F3AB8014F199
:10589C00360FDEBF002001F0004170BDC4F10004E2
:1058AC00203C35DA0C341BDC04F11404C4F1200563
:1058BC0000FA05F320FA04F001FA05F240EA0200BE
:1058CC0001F0004221F0004110EBD37021FA04F6F4
:1058DC0042EB06015EEA430E08BF20EAD37070BDAE
:1058EC00C4F10C04C4F1200500FA04F320FA05F00D
:1058FC0001FA04F240EA020001F0004110EBD3700F
:10590C0041F100015EEA430E08BF20EAD37070BD7E
:10591C00C4F1200500FA05F24EEA020E20FA04F357
:10592C0001FA05F243EA020321FA04F001F0004106
:10593C0021FA04F220EA020000EBD3705EEA430E77
:10594C0008BF20EAD37070BD94F0000F0FD101F0A6
:10595C000046400041EB010111F4801F08BF013CDF
:10596C00F7D041EA060195F0000F18BF704703F01D
:10597C000046520043EB030313F4801F08BF013DA4
:10598C00F7D043EA0603704794EA0C0F0CEA135560
:10599C0018BF95EA0C0F0CD050EA410618BF52EA1A
:1059AC004306D1D181EA030101F000414FF0000020
:1059BC0070BD50EA410606BF1046194652EA43062E
:1059CC0019D094EA0C0F02D150EA013613D195EAA2
:1059DC000C0F05D152EA03361CBF104619460AD1EA
:1059EC0081EA030101F0004141F0FE4141F47001F4
:1059FC004FF0000070BD41F0FE4141F4780170BDE4
:105A0C0070B54FF0FF0C4CF4E06C1CEA11541DBF48
:105A1C001CEA135594EA0C0F95EA0C0F00F0A7F84A
:105A2C00A4EB050481EA030E52EA03354FEA013177
:105A3C0000F088804FEA03334FF0805545EA13138A
:105A4C0043EA12634FEA022245EA111545EA106552
:105A5C004FEA00260EF000419D4208BF964244F1E9
:105A6C00FD0404F5407402D25B084FEA3202B61A08
:105A7C0065EB03055B084FEA32024FF480104FF4DC
:105A8C00002CB6EB020E75EB030E22BFB61A754650
:105A9C0040EA0C005B084FEA3202B6EB020E75EBE3
:105AAC00030E22BFB61A754640EA5C005B084FEA4B
:105ABC003202B6EB020E75EB030E22BFB61A754618
:105ACC0040EA9C005B084FEA3202B6EB020E75EB23
:105ADC00030E22BFB61A754640EADC0055EA060EE4
:105AEC0018D04FEA051545EA16754FEA06164FEA27
:105AFC00C30343EA52734FEAC2025FEA1C1CC0D1D3
:105B0C0011F4801F0BD141EA00014FF000004FF05F
:105B1C00004CB6E711F4801F04BF01430020B4F120
:105B2C00FD0C88BFBCF5E06F3FF6AFAEB5EB030CD8
:105B3C0004BFB6EB020C5FEA500C50F1000041EBD5
:105B4C00045170BD0EF0004E4EEA113114EB5C04A2
:105B5C00C2BFD4EB0C0541EA045170BD41F4801175
:105B6C004FF0000E013C90E645EA060E8DE60CEA7D
:105B7C00135594EA0C0F08BF95EA0C0F3FF43BAF9A
:105B8C0094EA0C0F0AD150EA01347FF434AF95EA51
:105B9C000C0F7FF425AF104619462CE795EA0C0F35
:105BAC0006D152EA03353FF4FDAE1046194622E702
:105BBC0050EA410618BF52EA43067FF4C5AE50EADC
:105BCC0041047FF40DAF52EA43057FF4EBAE12E7CC
:105BDC004FF0FF3C06E000BF4FF0010C02E000BFAD
:105BEC004FF0010C4DF804CD4FEA410C7FEA6C5C90
:105BFC004FEA430C18BF7FEA6C5C1BD001B050EA33
:105C0C00410C0CBF52EA430C91EA030F02BF90EA1D
:105C1C00020F0020704710F1000F91EA030F58BFDC
:105C2C00994208BF90422CBFD8176FEAE37040F03E
:105C3C00010070474FEA410C7FEA6C5C02D150EADC
:105C4C00013C07D14FEA430C7FEA6C5CD6D152EA97
:105C5C00033CD3D05DF8040B704700BF844610465C
:105C6C0062468C461946634600E000BF01B5FFF75B
:105C7C00B7FF002848BF10F1000F01BD4DF808ED2B
:105C8C00FFF7F4FF0CBF012000205DF808FB00BFFC
:105C9C004DF808EDFFF7EAFF34BF012000205DF856
:105CAC0008FB00BF4DF808EDFFF7E0FF94BF0120A3
:105CBC0000205DF808FB00BF4DF808EDFFF7CEFFA4
:105CCC0094BF012000205DF808FB00BF4DF808EDE3
:105CDC00FFF7C4FF34BF012000205DF808FB00BFB4
:105CEC004FEA410C7FEA6C5C02D150EA013C0AD1CC
:105CFC004FEA430C7FEA6C5C02D152EA033C02D1BE
:105D0C004FF0000070474FF0010070474FEA41021E
:105D1C0012F5001215D211D56FF47873B3EB6252F1
:105D2C0012D94FEAC12343F0004343EA505311F018
:105D3C00004F23FA02F018BF404270474FF00000AA
:105D4C00704750EA013005D111F0004008BF6FF0E8
:105D5C00004070474FF00000704700BF4A0011D25E
:105D6C0012F5001211D20DD56FF47873B3EB6252A9
:105D7C000ED44FEAC12343F0004343EA505323FAB5
:105D8C0002F070474FF00000704750EA013002D12A
:105D9C004FF0FF3070474FF00000704710B5054CC6
:105DAC0013462CB10A4601460220AFF3008010BD09
:105DBC00204610BD0000000010B5431E0A4491425D
:105DCC0004D011F8014B03F8014FF8E710BD024461
:105DDC000346934202D003F8011BFAE77047000018
:105DEC0038B5124B1C68A36B0546D3B91820FEF7C7
:105DFC002DFB43F20E33A06303804AF6CD33438070
:105E0C0041F2342383804EF26D63C3804DF6EC6314
:105E1C000381052343810B23838101220023C0E9E5
:105E2C000423A36B00221D615A6138BDC4E4032016
:105E3C00034613F8012B002AFBD1181A01387047BE
:105E4C001D400D0059400D0085400D0089400D008E
:105E5C00000000000000000000000000D7440D000E
:105E6C00CD440D00C3440D00B9440D00AD440D00EC
:105E7C00A1440D0095440D008D440D0083440D008C
:105E8C0079440D00794F0D006E616E006F766600DF
:105E9C002E00696E660062617564005365726961FB
:105EAC006C0053657269616C3100747970650070B7
:105EBC006172616D00636D6400696400686E6400FA
:105ECC007374726D0066696C74006C766C0061643E
:105EDC006448616E646C65720072656D6F766548BE
:105EEC00616E646C657200656E756D48616E646C94
:105EFC00657273004A534F4E53747265616D4C6FEB
:105F0C006748616E646C6572006170700025303199
:105F1C00307520005D20002564002C200028293AD3
:105F2C002000205B00636F6465203D200025690024
:105F3C0064657461696C73203D20000D0A006C6E01
:105F4C0000666E00636F64650064657461696C0063
:105F5C006E6F6E6500747261636500696E666F00CA
:105F6C007761726E006572726F720070616E696338
:105F7C0000616C6C005A00252B3033643A253032AA
:105F8C00750025592D256D2D25645425483A254D30
:105F9C003A2553257A0061736374696D65000000BE
:105FAC00000000000000000079490D0069490D0057
:105FBC006B490D000000000000000000514A0D006C
:105FCC00A14A0D00AF4A0D0099450D008D4A0D00F8
:105FDC00534A0D00694A0D009B4A0D007F4A0D0083
:105FEC004D4A0D0000000000000000005D4B0D004C
:105FFC00AD4B0D00BB4B0D0099450D00714B0D00C9
:10600C00934B0D007F4B0D00A74B0D005F4B0D000C
:10601C00634B0D000000000000000000954C0D00CB
:10602C00DF4C0D00B74C0D00974C0D00BF4C0D0014
:10603C00C74C0D00CF4C0D00D74C0D0000000000DC
:10604C0000000000774D0D006D4D0D00634D0D00EF
:10605C00594D0D004D4D0D00414D0D00354D0D00B0
:10606C002D4D0D00234D0D00194D0D00794F0D00D8
:10607C000000000000000000F34E0D00E94E0D0082
:10608C00DF4E0D00954E0D00D34E0D00C74E0D008A
:10609C00BB4E0D00B34E0D00A94E0D009F4E0D00D2
:1060AC00794F0D000000000000000000114F0D00A2
:1060BC001B4F0D00254F0D002F4F0D00394F0D00BC
:1060CC00454F0D00514F0D005D4F0D00654F0D00FC
:1060DC006F4F0D00794F0D00000000000000000014
:1060EC0000000000000000000000000000000000A4
:1060FC000000000000000000000000000000000094
:10610C000000000000000000000000000000000083
:10611C000000000000000000000000000000000073
:10612C000000000000000000000000000000000063
:10613C000000000000000000000000004300000010
:10614C000D410D00E1440D002D450D0071450D0074
:10615C00F5470D0005480D003D480D00454E0D005E
:10616C00FD4E0D0045500D00B9510D003D520D0076
:10617C0001530D00C5530D0000000000000000008D
:04618C00000000000F
:04619000000000000B
:106194001300000017B7513AA25F0D000000000081
:1061A400E8600D0008610D0028610D00000000008A
:1061B40000000000000000000000000048610D0025
:1061C40000000000000000000000000000000000CB
:1061D40000000000000000000000000000000000BB
:1061E40000000000000000000000000000000000AB
:1061F40000000000000000000000000064E4032030
:10620400FFFFFFFF00000102030405060708090A57
:106214000B0C0D0E0F101112131415161718191A52
:086224001B1C1D1E1F20280099
:04622C00785634125A
:04000003D000401CCD
:00000001FF
